:020000040800F2
:10000000301B002045010008F3360008691F000876
:10001000CD350008F5110008B96F00080000000098
:10002000000000000000000000000000014C00087B
:1000300005140008000000005B010008154D0008D1
:100040005F0100085F0100085F010008D548000853
:100050005F0100085F0100088D1800089118000872
:100060001519000885190008091A00085F01000821
:100070005F0100085F0100085F0100085F010008E0
:100080005F0100085F0100085F0100085F010008D0
:100090005F0100085F0100085F010008711A000895
:1000A0005F0100085F0100085F0100085F010008B0
:1000B0005F0100085F010008695400085F01000843
:1000C0005F0100085F0100085F0100085F01000890
:1000D0005F010008716D00085F0100089D6D000858
:1000E0005F0100085F0100085F0100085F01000870
:1000F0005F0100085F0100085F0100085F01000860
:100100005F0100085F0100085F0100085F0100084F
:100110005F0100085F0100085F0100085F0100083F
:100120005F0100085F0100085F0100085F0100082F
:10013000DFF80CD000F04EFD00480047C9800008F1
:10014000301B00200648804706480047FEE7FEE7D0
:10015000FEE7FEE7FEE7FEE7FEE7FEE7FEE7FEE777
:10016000554D000831010008A0F14101192900D8BE
:100170002030704740EA01039B0703D009E008C91B
:10018000121F08C0042AFAD203E011F8013B00F85C
:10019000013B521EF9D27047D2B201E000F8012BA8
:1001A000491EFBD270470022F6E710B513460A46F7
:1001B00004461946FFF7F0FF204610BD421E12F814
:1001C000013F002BFBD111F8013B02F8013B002B52
:1001D000F9D1704730B505462A460B4612F8010B97
:1001E00013F8014B08B1A042F8D01CB1002802D08E
:1001F0006D1CF1E7284630BDCAB2401E10F8011F41
:100200008A4202D00029F9D100207047421C10F820
:10021000011B0029FBD1801A704710B5044600E08D
:10022000401C0378002BFBD100E0401C521E04D37D
:1002300011F8013B0370002BF7D10021017020461B
:1002400010BD034611F8012B00F8012B002AF9D14B
:100250001846704730B505460020034600E05B1C99
:10026000934205D2EC5CC85C201A01D1002CF6D177
:1002700030BDF0B480EA0102D40F4200B2EB410F6E
:1002800002D20246084611464A0042D0C30DDDB2F2
:10029000C1F3C752AD1A202D35DAC1F3160141F46E
:1002A000000204B15242C5F1200602FA06F12A41C9
:1002B0001044B3EBD05F23D0C4B1012DA0EBC350E9
:1002C00009DCF0BC4FF0004202EAC352DBB200F599
:1002D000000000F004BB400000F1807000EBC35050
:1002E000A0F1807040EAD170490009E0490841EA74
:1002F000C071A0EBC35000F50000400800EBC350F4
:10030000F0BC00F0E3BA6142012202EB4101001BA4
:10031000F6E7F0BC704781F00041AAE780F00040AA
:10032000A7E780EA010210B502F00043400022D0A6
:100330004A001FD0010E01EB1261C0F35600C2F358
:10034000560240F4000042F40002A0FB0220000428
:100350007F39140400D0401C50EA124001D4400000
:10036000491EC2B20C0604EBD010401C4008802A83
:1003700002D003E0002010BD20F00100002900DAC7
:100380000020184310BD30B480EA010202F000459D
:1003900030F0004221F0004013D090B1C30DD40DD5
:1003A000C2F31601C0F31600E41A41F4000140F450
:1003B00000027D34914201D3641C00E04900002C0E
:1003C00002DA30BC002070474FF400000023914255
:1003D00001D3891A034340084FEA4101F7D151B1D3
:1003E000914202D14FF0004105E002D24FF00101ED
:1003F00001E06FF0010103EBC450284430BC00F071
:1004000065BA2DE9FE4F804681EA0300C00F0C4615
:10041000009021F0004123F00045B8EB0200A94113
:1004200005D24046214690461C460B46024623F024
:100430000040104347D0270DC7F30A00C3F30A5109
:100440000290401A019040286BDAC3F3130040F485
:10045000801B0098924620B10023D2EB030A63EB85
:100460000B0B01985946C0F14002504600F0FDF9CF
:1004700006460D4650465946019A00F015FA10EB13
:1004800008006141002487EA115284EAE7731A43A5
:1004900040D0009A62B3019A012A4FEA075215DC54
:1004A000001B61EB02014FF0004202EA0752CDE966
:1004B0000042001C41F5801132462B4600F04CFAF8
:1004C00003B0BDE8F08F40462146F9E7001B61EB21
:1004D0000201001C41F5801300185B412018A2F5B1
:1004E000001747EB030140EAD570B6196D4111E0E2
:1004F0006D084FEA360645EAC0754FEA0752001B01
:1005000061EB0201001C41F5801149084FEA3000FF
:100510000019514132462B4603B0BDE8F04F00F0C0
:100520000CBA0098012240000023D0EB020263EBDA
:10053000E073009821464FEAE074B8EB000061EBED
:100540000401E9E783F000435BE781F0004158E7ED
:100550002DE9FE4F81EA030404F0004421F000413C
:1005600000944FF0000B23F0004350EA01045ED0EA
:1005700052EA03045BD0C3F30A54C1F30A552C4476
:10058000A4F2F3340194A0FB0254C1F3130141F42B
:100590008011C3F3130343F4801301FB024400FBF7
:1005A000034E840A970A44EA815447EA8357A4FB1E
:1005B000076802958D0A05FB07854FEA932C04FB1B
:1005C0000C542705029D4FEA065847EA1637B5EB4B
:1005D00008056EEB070C870E920E47EA811742EA78
:1005E0008312A7FB0201B6EB0B0164EB00042B0D99
:1005F00043EA0C335E1844EB1C50DA465146E7FBE5
:100600000201C5F313044FEA0B3343EA14534FEAD4
:100610000432019C43EA0603A4F10C040294009CFA
:10062000CDE900B400F098F903B0BDE8F08F0020E8
:100630000146F9E7C10F80EAE0700844CA07962333
:10064000002100F04CB996230022114600F047B972
:100650000EB5C10F80EAE0700844CA07002140F2DD
:1006600033438DE80E000A460B4600F075F903B0DF
:1006700000BD0EB540F2334102910021CDE90011D9
:100680000A460B4600F068F903B000BD00F00042D6
:1006900020F00040C10DC0F3160040F400007F2997
:1006A00001DA00207047962903DCC1F19601C840A9
:1006B00001E096398840002AF4D04042704720F08B
:1006C0000040C10DC0F3160040F400007F2901DA9C
:1006D00000207047962903DCC1F19601C84070479D
:1006E00096398840704770B5C1F30A5201F0004551
:1006F0000024C1F3130140F2FF3341F480119A4208
:1007000001DA002070BD40F233439A42A2F2334234
:1007100003DC524200F0B8F800E090402C43F1D0E6
:10072000404270BDC1F30A5210B5C1F3130140F24B
:10073000FF3341F480119A4201DA002010BD40F2EB
:1007400033439A42A2F2334203DC524200F09CF857
:1007500010BD904010BD00F0004230F000400AD0C3
:10076000C10D01F56071C0F3160042EA0151C208E3
:1007700040071143704700200146704730B5041E02
:1007800071F1000404DB4FF00044404264EB0101CE
:10079000141E73F1000405DB1C464FF00043524267
:1007A00063EB04038B4208BF824230BD30B5041EA8
:1007B00071F1000404DB4FF00044404264EB01019E
:1007C000141E73F1000405DB1C464FF00043524237
:1007D00063EB0403994208BF904230BD30B50B462D
:1007E000014600202022012409E021FA02F59D4261
:1007F00005D303FA02F5491B04FA02F52844151E35
:10080000A2F10102F1DC30BD2DE9F05F05460020C8
:1008100092469B4688460646814640241BE0284671
:1008200041464746224600F02FF853465A46C01A22
:10083000914110D311461846224600F016F82D1AA1
:1008400067EB01084F4622460120002100F00DF819
:1008500017EB00094E41201EA4F10104DFDC4846DD
:1008600031462A464346BDE8F09F202A04DB203A61
:1008700000FA02F1002070479140C2F1200320FAF3
:1008800003F3194390407047202A04DB203A21FAF1
:1008900002F00021704721FA02F3D040C2F1200299
:1008A0009140084319467047202A06DBCB17203AAF
:1008B00041FA02F043EAE07306E041FA02F3D04065
:1008C000C2F1200291400843194670470029A8BF91
:1008D0007047401C490008BF20F00100704710B469
:1008E000B0FA80FC00FA0CF050EA010404BF10BC1E
:1008F000704749B1CCF1200421FA04F411FA0CF14B
:1009000018BF012121430843A3EB0C01CB1D4FEA83
:1009100000614FEA102042BF002010BC704700EB7E
:10092000C35010440029A4BF10BC7047401C4900AC
:1009300008BF20F0010010BC704710B5141E73F101
:10094000000408DA401C41F1000192185B411A438F
:1009500001D120F0010010BD2DE9F04D92469B46DB
:1009600011B1B1FA81F202E0B0FA80F22032904681
:10097000FFF77BFF04460F4640EA0A0041EA0B01FD
:1009800053465A46084313D0114653EA010019D082
:10099000C8F140025046FFF777FF05460E46504625
:1009A00059464246FFF761FF084305D0012004E0A5
:1009B00020463946BDE8F08D0020054346EAE07642
:1009C0002C4337430A986305E40AA0EB0800002291
:1009D000FD0A44EA47540A3002D500200146E9E7FF
:1009E000010510196941DDE9084500196941BDE8B3
:1009F000F04DA2E72DE9F04D81EA030404F0004B2D
:100A000021F0004514464FF0000A23F0004150EA5F
:100A1000050220D054EA01021DD0C5F30A57024650
:100A2000C5F31303C1F31300C1F30A5640F4801554
:100A300043F48013A7EB0608101BD64608F2FD38D6
:100A400073EB050002D308F1010801E092185B4145
:100A5000B8F1000F03DA00200146BDE8F08D002058
:100A60004FF48011064684460EE0171B73EB050712
:100A700005D3121B63EB050306434CEA010C49083E
:100A80004FEA300092185B4150EA0107EDD152EA7B
:100A9000030012D082EA040083EA0501084305D06E
:100AA000101BAB4106D20122002306E000224FF0CA
:100AB000004302E06FF0010253101AEB06004CEB0A
:100AC000085110EB0A0041EB0B01BDE8F04DFFF7B8
:100AD00034BF70B521F0004303430CD0C1F30A5575
:100AE0000024D5EB040564EB0403D617AD1AB3411B
:100AF00002DB0020014670BD201841EB025170BDA1
:100B00002DE9F04D00231A461B1A8A4103DB002011
:100B10000146BDE8F08DC1F30A52C1F3130141F45F
:100B200080154FF0000BD10702D100186D41521E05
:100B30000027044640F2FF11384601EB620A3E46A8
:100B40008046024600204FF48011FFF79DFEC21937
:100B50007141BB1846EB0100B4EB030C75EB000CC4
:100B600004D3E41A65EB000517460E46241908F174
:100B700001006D4180463428E3DDF91946EB06009B
:100B8000091BA84103D24FF0FF32134601E00022B7
:100B900013461BEB070046EB0A51BDE8F04DFFF78B
:100BA000CCBEC1F30A52C1F3130140F2FF3341F44A
:100BB00080119A4202DA00200146704740F2334326
:100BC0009A42A2F2334202DC5242FFF75DBEFFF7C7
:100BD0004CBE0000064C074D06E0E06840F0010303
:100BE00094E8070098471034AC42F6D3FFF7A4FA14
:100BF0006CFB00088CFB000821B1826842F0010206
:100C0000826003E0826822F0010282607047000087
:100C100010B504461248844208D10121401503F062
:100C200073FC0021601503F06FFC17E00D4884424F
:100C300008D10121001503F067FC0021201503F005
:100C400063FC0BE00848844208D10121C80303F08B
:100C50005BFC00214FF4004003F056FC10BD000087
:100C60000024014000280140003C014001460020D2
:100C70008A6802F004020AB1012000E000207047F7
:100C80000146C86C80B270470246002013680B40D2
:100C90000BB1012000E000207047014600208A6867
:100CA00002F008020AB1012000E0002070470000B5
:100CB00030B502460020002350680F4C20400D79CB
:100CC0000C6844EA05242043506090680B4C204097
:100CD000D1E902542C434D7944EA45042043906005
:100CE000D06A20F470000C7C641EE4B2234340EA16
:100CF0000350D06230BD0000FFFEF0FFFDF7F1FFB2
:100D0000F0B504460D4600200021092D11DDE068F4
:100D1000A5F10A0606EB4607072606FA07F18843FF
:100D2000A5F10A0606EB460603FA06F10843E06061
:100D30000CE0206905EB4507072606FA07F1884312
:100D400005EB450603FA06F108432061072A0FDA8E
:100D5000606B561E06EB86071F2606FA07F18843CE
:100D6000561E06EB860605FA06F10843606322E08C
:100D70000D2A0FDA206BD61F06EB86071F2606FA10
:100D800007F18843D61F06EB860605FA06F10843ED
:100D9000206310E0E06AA2F10D0606EB86071F262D
:100DA00006FA07F18843A2F10D0606EB860605FA5E
:100DB00006F10843E062F0BD816841F008018160FE
:100DC000704721B1826842F4A002826003E0826829
:100DD00022F4A00282607047816841F004018160C2
:100DE000704710B501F0C6F910BD2DE9F041074676
:100DF0000C460026002509E036023919491B491E18
:100E000088B200F008F80644681CC5B2A542F3DBBE
:100E10003046BDE8F08170B50446002601F04AFA7C
:100E20002546E11704EB11610912A02202EB4101F2
:100E3000C8B201F00DFA01F075FAE11704EB116187
:100E40000912A4EB0121C8B201F002FA01F06AFA1A
:100E500001F030FAA12001F0FBF901F063FA002063
:100E600001F0CAF9064601F041FA304670BD2DE99D
:100E7000F04105460E461746002409E0E20026FA36
:100E800002F2D1B22A1990B200F006F8601CC4B286
:100E9000BC42F3DBBDE8F08170B504460E4601F0BC
:100EA00009FA2546E11704EB11610912A02202EBB1
:100EB0004101C8B201F0CCF901F034FAE11704EBBA
:100EC00011610912A4EB0121C8B201F0C1F901F0CE
:100ED00029FA304601F0BCF901F024FA01F006FAD3
:100EE0000A2006F085FF70BD2DE9F04707468946C8
:100EF0009046DDF820C000210022002400260025B5
:100F0000002004460246014645E0002601E0491C57
:100F1000761C614502D2585C2028F8D0614500D18A
:100F20003BE0ACEB0100022807D3585C0D2804D14C
:100F3000481C185C0A2800D12CE0585C0A2800D113
:100F400028E01EB16FF02B00BDE8F087585C3D280B
:100F500006D1601C0446022802D96FF02B00F3E78B
:100F6000585C7F2806DC585CDFF8E4A01AF8000023
:100F70007F2802D16FF02B00E6E7585CDFF8D0A0A5
:100F80001AF80000402803DA14B16FF02B00DBE7F9
:100F9000521C00BF491C6145B7D300BF1AB90020DD
:100FA000C8F80000D0E7D00800EB40004FEA400A44
:100FB00002F0070000EB40004000C01D0AEBD00229
:100FC000121B0FB1914504D2C8F800206FF0290020
:100FD000BAE703240020064602463D4631E0187871
:100FE0000D2805D018780A2802D01878202800D1BA
:100FF00025E01878DFF858A01AF80000402801D141
:10100000012000E00020241A1878DFF844A01AF824
:10101000000066F39F100646501C024604280DD1BE
:10102000002214B1300C05F8010B012C02D9300A52
:1010300005F8010B022C01D905F8016B00BF491E10
:101040005B1C0029CBD1E81BC8F8000000207BE71F
:101050008CF900082DE9F04F07468946099C0025C8
:101060000026AC46A846AA4600211CB90020106004
:10107000BDE8F08F0320B4FBF0F04FF0030BB4FB9E
:10108000FBFE0BFB1E4BBBF1000F02D04FF0010B20
:1010900001E04FF0000B00EB0B06B6F1804F05D3DB
:1010A0004FF0FF3010606FF02900E1E7B600701CD0
:1010B000814500D327B9701C10606FF02900D7E775
:1010C0000320B4FBF0F000EB40060025394629E090
:1010D00013F801CB13F8018B13F801AB2D484FEA3D
:1010E0009C0B10F80B0001F8010B4FEA0C1000EB01
:1010F000281000F03F00DFF89CB01BF8000001F85A
:10110000010B4FEA880000EBAA1000F03F001BF82B
:10111000000001F8010B0AF03F001BF8000001F885
:10112000010BED1CB542D3D3A5422DD213F801CB50
:10113000681CA04202D213F8010B00E00020804698
:101140001448CCF3850B10F80B0001F8010B4FEAA3
:101150000C1000EB281000F03F00DFF838B01BF84F
:10116000000001F8010B681CA04207D23F2000EAF2
:1011700088001BF8000001F8010B02E03D2001F897
:10118000010B3D2001F8010BC81B10600020087006
:1011900000BF6DE74CF9000808B50121082003F0F5
:1011A000A3F94FF48070ADF8000010208DF8030013
:1011B00003208DF802006946044800F0BDFD0020C0
:1011C0000349086000F006F808BD0000000C01406B
:1011D000A081214210B5044622464FF48071034895
:1011E00000F08BFE0248047010BD0000000C0140AE
:1011F0001400002002A1114805F0B4FF00BFFEE773
:101200000D0A2A2A2A2A2A2A2A2A2A2A2A2A2A2A7B
:101210002A2A2A2A2A4275734661756C745F4861CE
:101220006E646C65722A2A2A2A2A2A2A2A2A2A2ADB
:101230002A2A2A2A2A2A2A2A0D0A000000380140CE
:1012400010B5002400F024F804E0601CC4B20120B2
:1012500006F0F4FD0D48006808B1642CF5DB642C41
:1012600001DB012010BD002404E0601CC4B2012099
:1012700006F0E4FD0548006808B9642CF5DB642C31
:1012800001DB0120EEE70020ECE700002C01244206
:1012900008B54FF40060ADF8000048208DF8030059
:1012A0006946024800F048FD08BD000000200140EA
:1012B00008B54FF40060ADF8000010208DF8030071
:1012C00003208DF802006946014800F035FD08BD95
:1012D0000020014008B50121080203F005F94FF490
:1012E0000060ADF8000010208DF8030003208DF899
:1012F00002006946064800F01FFD4FF400610448F3
:1013000000F0F9FD00F068F8FFF79AFF08BD000053
:101310000020014010B5002404E0601CC4B201208C
:1013200006F08CFD0D48006808B1642CF5DB002444
:1013300004E0601CC4B2012006F080FD074800688C
:1013400008B9642CF5DB282006F078FD0348006816
:1013500008B1012010BD0020FCE700002C01244250
:1013600070B50024002506E06006040EFFF7D2FFEA
:101370000443681CC5B2082DF6DB204670BD7CB561
:1013800005460E4600F028F8FFF75AFFF8B900248A
:1013900005E0FFF7E5FF0DF80400601CC4B2052C62
:1013A000F7DB9DF800009DF8011008449DF802103D
:1013B00008449DF8031008449DF80410884208D1A1
:1013C0009DF8000030709DF80200287001E00120B7
:1013D0007CBD0020FCE7000010B5FFF769FF00208E
:1013E00006490860142006F003FD01200449C1F8F5
:1013F000AC011E2006F022FD10BD0000AC0124420D
:1014000000002442704700001CB5002055490880A8
:1014100055A24E210A2001F0C5F955A276210A20D5
:1014200001F0C0F954A29E210A2001F0BBF954A298
:10143000C6210A2001F0B6F953A2F0210A2001F0DA
:10144000B1F953A01821CDE9001052484388028811
:101450004FF48C710A2001F0A8FA4F4820231A4655
:101460004FF48C710090782001F05AFA4B482023F9
:101470001A464FF48C710090A02001F051FA48A058
:101480001821CDE900104348438802884FF4A07129
:101490000A2001F08AFA43A01821CDE900103D4846
:1014A000438802885021462001F07FFA3FA018218E
:1014B000CDE900103748438802887821462001F0A2
:1014C00074FA3CA01821CDE9001032484388028804
:1014D000A021462001F069FA36A01821CDE90010BC
:1014E0002C4843880288C821462001F05EFA33A2C6
:1014F0004FF4B4710A2001F055F932A24FF4C871CB
:101500000A2001F04FF931A24FF4DC710A2001F0FA
:1015100049F930A01821CDE900101E4843880288FF
:101520004FF4B471AA2001F040FA2EA01821CDE9A1
:1015300000101848438802884FF4C871AA2001F0AF
:1015400034FA2CA01821CDE90010124843880288F3
:101550004FF4DC71AA2001F028FA4FF4FC60014935
:1015600008801CBD30000020CEC2B6C800000000BC
:10157000CAAAB6C800000000B9E2D5D50000000034
:10158000BAECCDE200000000C5DCC2EDB5C600003B
:101590006D6167003400002028E9000830F1000880
:1015A0006E756D003A202020430000003A20202074
:1015B000255248003A20202000000000C0EED5D17E
:1015C000B3BF0000D5C5B0B2C9AD0000D5C5D6DEE9
:1015D000BAC000003230323130303831303230353C
:1015E00000000000323032313030383130313233A7
:1015F000000000003230323130303831303238348F
:101600000000000010B54FF400710348FEF7CBFD59
:1016100000200249088010BD2F010020C2000020D8
:1016200070B50546002400BF00F016F9A8B910A156
:101630001148FEF7CFFD044624B910A1144805F067
:1016400091FD0AE03A212046FEF7D6FD044614B18A
:10165000641C204670BD0020FCE7052006F0C8FB96
:10166000281EA5F101018DB2DED100BFF2E7000016
:101670004950442C000000002F0100202249504412
:1016800022206E6F7420666F756E640D0A00000074
:101690000038014010B5FFF7B5FF20A1214805F043
:1016A00061FD03E04FF4FA7006F0A2FB1EA11FA03B
:1016B00000F084F80028F5D11EA11A4805F052FD6B
:1016C00003E04FF4FA7006F093FB17A11CA000F0A2
:1016D00075F80028F5D11EA1124805F043FD03E07E
:1016E0004FF4FA7006F084FB0FA11DA000F066F81D
:1016F0000028F5D11EA10B4805F034FD03E04FF49E
:10170000FA7006F075FB1DA11EA000F057F8002826
:10171000F5D124A1034805F025FD10BD312E20414F
:10172000540D0A00003801404F4B000041540D0A8F
:1017300000000000322E2043574D4F44450D0A0053
:1017400041542B43574D4F44453D310D0A00000095
:10175000332E2041542B4357444843500D0A000078
:1017600041542B4357444843503D312C310D0A001E
:10177000342E2043574A41500D0A0000474F542051
:101780004950000041542B43574A41503D22686F55
:101790006E676D69222C223838383838383838224C
:1017A0000D0A0000352E2045535038323636204978
:1017B0006E6974204F4B0D0A000000002DE9F041C6
:1017C00004460D46C8262046FEF720FD87B23A465D
:1017D00021460D4805F0EAFC0FE000F03DF848B95D
:1017E00029460A48FEF7F6FC20B1FFF70BFF002060
:1017F000BDE8F0810A2006F0FBFA301EA6F10101D7
:10180000CEB2EAD10120F3E7004800402F010020CA
:1018100030B589B004460D46FFF7F4FE2A4608A10C
:1018200001A805F005FD0AA101A8FFF7C7FF20B92F
:101830002A462146074805F0B9FC09B030BD000032
:1018400041542B43495053454E443D25640D0A00F5
:101850003E000000004800400A48008808B9012006
:1018600070470848008808490988884203D1002049
:1018700004490880F4E703480088034908800120F0
:10188000EEE70000C2000020C40000207047000006
:1018900070B5022000F038F9012831D10A2006F095
:1018A000A7FA1948006801282AD11848007842F29E
:1018B0001071884209DB15490878C11700EB1171D6
:1018C0000911A0EB0111114A11701048007805218F
:1018D00090FBF1F201FB12000D4951F820500B4929
:1018E0000C78E11704EB11710911A4EB0111C8B2D6
:1018F000294602F0ABFF05480078401C03490870F8
:10190000022000F0FBF870BD00012142AA00002077
:101910001800002070B5042000F0F6F8012827D147
:101920000A2006F065FA1448006808BB13480078DE
:10193000002802DC10201149087010480078401E71
:101940000E49087008460078052190FBF1F201FB72
:1019500012000B4951F8205008490C78E11704EBAC
:1019600011710911A4EB0111C8B2294602F06EFFF2
:10197000042000F0C3F870BD08012342AA00002033
:101980001800002070B5082000F0BEF8012830D102
:101990000A2006F02DFA1948006850BB1848007854
:1019A00042F21071884209DB15490878C11700EB33
:1019B00011710911A0EB0111114A11701048007842
:1019C000052190FBF1F201FB12000E4951F8205065
:1019D0000B490C78E11704EB11710911A4EB01110B
:1019E000C8B2294602F032FF05480078401C04497D
:1019F0000870082000F082F870BD00000C0123423E
:101A0000AA0000201800002010B5102000F07CF87B
:101A1000012821D10A2006F0EBF911480068D8B955
:101A20001048006808B9012000E000200D49086056
:101A30000D48D0F8940108B9012000E000200849C1
:101A4000843108600948D0F8A00108B9012000E0FD
:101A5000002004490C310860102000F04FF810BD40
:101A60001001234294812142000023420080214240
:101A70002DE9F04100240026002530E04FF40071EC
:101A80001B4800F02DFA012829D100F055FA044630
:101A9000FA2C00DB24E0C82C03DBFA2C01DA012647
:101AA0000AE03C2C03DB5A2C01DA012704E00A2C63
:101AB00002DB322C00DA0027012E0ED10D4800681F
:101AC00040000C4908600846006838440860202D32
:101AD00003DB01200849087002E0681CC5B2CDE7AD
:101AE00000BF4FF4007000F009F8BDE8F08100007D
:101AF000000C01403C00002040000020014908602B
:101B00007047000014040140014600200022074BEA
:101B10001B6803EA0102054B14331B680B4013B129
:101B20000AB1012000E000207047000000040140DD
:101B3000002123498279002A3AD00A4612680368B4
:101B40009A430B461A600A1D126803689A430B1DDC
:101B50001A60027911440A6803681A430A60184A35
:101B60000832126803689A43154B08331A601A1D2D
:101B7000126803689A43124B0C331A604279102A98
:101B80000ED11A1F126803681A430D4B08331A60EE
:101B90001A1D126803681A43094B0C331A600DE0D2
:101BA0000749427911440A6803681A430A6005E04C
:101BB000027911440A6803689A430A60704700007A
:101BC0000004014051B18200A2F1C042126842F00B
:101BD00001038200A2F1C042136009E08200A2F179
:101BE000C0421268034B1A408300A3F1C0431A603D
:101BF00070470000FEFF0F00D0E901121143C268D8
:101C00001143026911434269114382691143C26958
:101C10001143026A1143426A1143826A1143C26A44
:101C20001143026B114302689200A2F1C04211609D
:101C3000816808290BD101688900A1F1C0410968B8
:101C400041F0400201688900A1F1C0410A60416B86
:101C50000968426B526841EA0211426B926841EA9C
:101C60000221426B928941EA0241426B128A41EAA7
:101C70000251426B127D41EA0261426B926911434B
:101C80000268521C9200A2F1C0421160C16AB1F513
:101C9000804F1BD1816B0968826B526841EA021147
:101CA000826B926841EA0221826B128A41EA0251F8
:101CB000826B127D41EA0261826B92691143026874
:101CC0009200A2F1C042C2F8041107E06FF0704226
:101CD00001688900A1F1C041C1F8042170470000EA
:101CE00010B506E00821034800F0FAF80446204643
:101CF00010BDF7E70014014030B500228B071C0F20
:101D00000F2303FA04F20B4B8C1053F82430934347
:101D1000084C8D1044F8253023468C1053F824309D
:101D20008C07240F00FA04F42343024C8D1044F86E
:101D3000253030BD080001402DE9F0410246002564
:101D40000026002000230024002791F803C00CF097
:101D50000F0591F803C00CF0100CBCF1000F03D07C
:101D600091F802C04CEA050591F800C0BCF1000FE3
:101D700031D0146800202BE04FF0010C0CFA00F376
:101D8000B1F800C00CEA03069E4220D183004FF058
:101D90000F0C0CFA03F7BC4305FA03FC4CEA0404ED
:101DA00091F803C0BCF1280F06D14FF0010C0CFADA
:101DB00000FCC2F814C00AE091F803C0BCF1480F5F
:101DC00005D14FF0010C0CFA00FCC2F810C0401C09
:101DD0000828D1D31460B1F800C0BCF1FF0F34DD86
:101DE000546800202EE000F1080C4FF0010808FABA
:101DF0000CF3B1F800C00CEA03069E4221D1830027
:101E00004FF00F0C0CFA03F7BC4305FA03FC4CEA45
:101E1000040491F803C0BCF1280F05D100F1080CAF
:101E200008FA0CF8C2F8148091F803C0BCF1480F0E
:101E300007D100F1080C4FF0010808FA0CF8C2F8BD
:101E40001080401C0828CED35460BDE8F08100000B
:101E5000F0B50A46002300240021002500F00046CA
:101E6000B6F1004F02D11D4EF16901E01B4E7168C1
:101E7000C0F3034583B200F44016B6F5401F08D105
:101E800021F07061154E766826F07066134F7E6003
:101E900012E000F48016B6F5801F06D1032606FA7C
:101EA00005F4A14341F0706106E0460D360103FAE6
:101EB00006F6B14341F0706122B1460D360103FAD6
:101EC00006F6314300F00046B6F1004F02D1034E52
:101ED000F16101E0014E7160F0BD000000000140C1
:101EE0000246002093680B400BB1012000E0002067
:101EF000704741617047016170470AB1016100E0BC
:101F00004161704710B50446072301222146094864
:101F1000FEF7F6FE01210748FEF753FF00BF02213E
:101F20000448FEF7B1FE0028F9D00248FEF7A8FEEB
:101F300010BD0000003C014010B5002408E0601C0A
:101F4000C4B2142005F07AFFFA2C01DB204610BD44
:101F50004FF400710348FFF7C3FF0128EFD020467C
:101F6000F5E70000000C014002A1114805F0FAF865
:101F700000BFFEE70D0A2A2A2A2A2A2A2A2A2A2A02
:101F80002A2A2A2A2A2A2A2A2A486172644661753C
:101F90006C745F48616E646C65722A2A2A2A2A2A48
:101FA0002A2A2A2A2A2A2A2A2A2A2A2A2A0D0A00F8
:101FB000003801401CB54FF4A06001F0D3FB48206D
:101FC00002F0AAFEFFF7E8F800F080F800F002FE49
:101FD00000F0CEF947214FF4FA7003F0F5F90A2129
:101FE000224803F034FD01F017FB48F69F4142F20E
:101FF000107003F0B9FB4FF4E13005F005F84FF431
:10200000E13005F059F8062004F0E2FD02F05EFF31
:10201000FFF7FAF904F02EFB02F05EFB12E014A0C9
:102020001021CDE900101748438802880A2108468C
:1020300000F0BBFC14A11A4805F094F84FF4FA70B4
:1020400005F0D6FEFFF746F90028E8D115A114489F
:1020500005F088F818A01021CDE900100948438840
:1020600002880A21084600F0A0FC1CBD00040040C4
:10207000444854313120436865636B204572726F68
:10208000722100003400002044485431312043685C
:1020900065636B204572726F72210D0A00000000AB
:1020A00000380140486172647761726520696E6929
:1020B00074204F4B0D0A00004861726477617265AD
:1020C00020696E6974204F4B000000001FB501218C
:1020D000092002F009FA4FF40070ADF80C00482016
:1020E0008DF80F0003A91448FFF726FE09210120EF
:1020F000FFF702FE4FF40070FFF700FD4FF4007091
:10210000019000208DF808000C208DF809000120B6
:102110008DF80A0001A8FFF70BFD17208DF80000CD
:1021200000208DF8010001208DF802008DF80300D9
:10213000684601F0DFFA1FBD000C014010B5002019
:102140000A49086002F04AFD00200949C1F89C01D3
:10215000022005F073FE012004490860052005F007
:102160006DFE00200249C1F8980110BD98812142FE
:102170000080214208B50121082002F0B5F9402075
:10218000ADF8000003208DF8020010208DF8030048
:1021900069460848FFF7D0FD8020ADF80000694689
:1021A0000448FFF7C9FD0120034908600349C1F84D
:1021B0009C0108BD000C0140988121420080214211
:1021C00010B500200A49086002F008FD0120094905
:1021D000C1F89C01022005F031FE0120044908608D
:1021E000052005F02BFE00200249C1F8980110BD22
:1021F000988121420080214270B50546002402F0FA
:10220000DFFC002616E000200F490860022005F0E0
:1022100015FE01200D49C1F898016006040E0A4818
:102220007C38006808B1601CC4B2012005F006FECD
:10223000701CC6B2082EE6DB15B9FFF7C1FF01E03E
:10224000FFF77CFF204670BD98812142008021422B
:1022500070B5044602F0C2FC002014490860002555
:1022600020E004F08000002804DD01200F49091D52
:10227000086003E000200D49091D08606006040E97
:10228000022005F0DBFD012008490860022005F06E
:10229000D5FD00200649C1F89801022005F0CEFDC9
:1022A000681CC5B2082DDCDB70BD0000988121429E
:1022B0000080214210B502F091FC0120094908601C
:1022C0000949C1F89801052005F0B8FD002005492D
:1022D0000860062005F0B2FD00200349C1F898010E
:1022E00010BD00009C8121420080214210B502F007
:1022F00075FC0020094908600949C1F89C010120CA
:1023000006490860062005F099FD01200449C1F83E
:102310009C01062005F092FD10BD0000988121422D
:102320000080214210B5002401200F49086005F00B
:1023300085FD02F045FC01200C49C1F8980105F02B
:102340007DFD07E0601CC4B2FA2C03DDFFF7CEFF71
:10235000012010BD0448803800680028F2D10249ED
:10236000091F086000BFF4E79C81214200802142E0
:1023700008B50121442002F0B7F80120ADF80000B3
:1023800028208DF8030069460648FFF7D5FC1C207D
:10239000ADF8000048208DF8030069460248FFF7B9
:1023A000CBFC08BD000801400018014070B506468E
:1023B0000F484088401E83B20D480088401E82B2FC
:1023C0000021084600F007F900240CE0002504E095
:1023D000304600F029FB681C85B205484088A842B9
:1023E000F6DC601C84B202480088A042EEDC70BDBE
:1023F0003400002000B502460F4882716AB93620C9
:1024000000F006FB002000F009FB4FF4F0700A49D1
:1024100048804FF4A07008800CE0362000F0F8FAF5
:10242000602000F0FBFA4FF4A070034948804FF49D
:10243000F070088000BD00003400002070B5044634
:102440000D4616462B4622462946204600F0C3F884
:10245000304600F0E9FA70BD2DE9FF4F84B08146A7
:102460008A460020039002900698A0EB0905079881
:10247000A0EB0A06CDF80490CDF800A0002D01DDF8
:10248000012705E00DB9002702E04FF0FF376D424C
:10249000002E02DD4FF0010806E016B94FF00008EB
:1024A00002E04FF0FF387642B54201DD2C4600E0F5
:1024B00034464FF0000B21E0009A91B2019A90B29D
:1024C00000F022F8039828440390029830440290C8
:1024D0000398A04205DD0398001B0390019838443F
:1024E00001900298A04205DD0298001B029000981E
:1024F000404400900BF101001FFA80FB601C8345F3
:10250000DADD08B0BDE8F08F30B504460D462B4645
:1025100022462946204600F05EF80248008800F076
:1025200083FA30BD300000202DE9F04306460F4607
:102530009046002445460320A0EB48093CE07A1B66
:1025400091B2321990B2FFF7DFFF3A1B91B27219C4
:1025500090B2FFF7D9FF3A1991B2721990B2FFF712
:10256000D3FF7A1991B2321990B2FFF7CDFF7A19E1
:1025700091B2321B90B2FFF7C7FF3A1991B2721BAA
:1025800090B2FFF7C1FF7A1B91B2321B90B2FFF7F6
:10259000BBFF3A1B91B2721B90B2FFF7B5FF641CF0
:1025A000B9F1000F03DAA000801D814404E0601B34
:1025B00080000A3081446D1EAC42C0DDBDE8F0836E
:1025C00010B50246012000E050430B1EA1F10104AA
:1025D000E1B2F9D110BD70B504460D462A2000F0D5
:1025E00017FA2646E11704EB1161C1F30F2000F042
:1025F00015FAE11704EB11610912A4EB012188B26D
:1026000000F00CFA1646D11702EB1161C1F30F204E
:1026100000F004FA1646D11702EB11610912A2EB81
:10262000012188B200F0FAF92B2000F0F1F92E46D2
:10263000E91705EB1161C1F30F2000F0EFF9E9177D
:1026400005EB11610912A5EB012188B200F0E6F952
:102650001E46D91703EB1161C1F30F2000F0DEF91C
:102660001E46D91703EB11610912A3EB012188B2B1
:1026700000F0D4F92C2000F0CBF970BD2DE9F84F13
:1026800080460E4617461C46B3462046E31704EB29
:102690005373DB1021464FEAE47C04EB5C7C4FEA89
:1026A000EC0CA4EBCC0CBCF1000F02D04FF0010CF1
:1026B00001E04FF0000C6344224604EBD27C4FEA69
:1026C0006C0C03FB0CF3DBB20093A7F12000C7B244
:1026D000002556E00C2C07D107EB47002B4901EBF6
:1026E000800010F8059013E0102C05D1284800EB6D
:1026F000071010F805900BE0182C07D107EBC70066
:10270000244901EB800010F8059001E0BDE8F88F46
:102710004FF0000A2FE009F0800030B11E48028817
:1027200031464046FFF78AFE07E00A9828B91B4861
:10273000028831464046FFF781FE4FEA49604FEA82
:102740001069701C86B216484088B04200DCDDE794
:10275000A6EB0B00A0420AD15E4608F101001FFA69
:1027600080F80F480088404500DCCFE706E00AF11A
:10277000010000F0FF0ABAF1080FCCDB00BF681CB3
:10278000C5B200988542A5DB00BFBFE76E97000881
:10279000E29B0008D2A10008300000203200002097
:1027A000340000202DE9F84F04460F461546A34695
:1027B000009760E0002657E006EB8600C0EB86102D
:1027C0002F4911F81000297888424BD106EB86007A
:1027D000C0EB86102A4901EB4000407869788842B6
:1027E00040D14FF000083AE006EB8600C0EB8610BF
:1027F000234901EB4000801C10F808A04FF00009AD
:1028000026E00AF08000802806D11E48028839465A
:102810002046FFF713FE05E01B4802883946204694
:10282000FFF70CFE4FF6FF7000EA4A0A601C84B204
:10283000A4EB0B00202807D15C46781C87B20098D7
:10284000381A1D2800D1009F09F1010000F0FF098E
:10285000B9F1080FD5DB08F1010000F0FF08B8F16D
:10286000740FC1DB701CC6B2142EA5DBAD1C04F1C5
:10287000200084B2A346287800289BD1BDE8F88FB9
:10288000AEDE000830000020320000202DE9FF4FAE
:1028900081B0074691461E460E9D4FF0000A002467
:1028A00039E0301B401EC1B20A20FFF789FEB9FB98
:1028B000F0F00A21B0FBF1F201FB1208BAF1000FAF
:1028C00016D1701EA04213DDB8F1000F0ED100200A
:1028D000AB4605EBDB71491001FB0471009088B237
:1028E0002B4620220299FFF7C9FE12E04FF0010AA1
:1028F0000020AB4605EBDB71491001FB0471009031
:1029000088B208F13001CAB22B460299FFF7B6FE31
:1029100000BF601CC4B2B442C3DB05B0BDE8F08F99
:102920002DE9F84F06460F4614461D464FF0000AA3
:10293000D346002000907819401E83B23019401E03
:1029400082B239463046FFF746FE04FB05F04000F0
:102950000090D04625E04FF000091CE00BF101018A
:102960000A9810F801A04FF6FF7000EA0A2A0A98A8
:1029700010F80B0040EA0A0A07EB080291B206EBD6
:10298000090290B25246FFF759FD0BF1020B09F113
:1029900001001FFA80F9A145E0DB08F101001FFAF0
:1029A00080F8A845D7DBBDE8F88F2DE9F847044645
:1029B0000D4690469946DDE9096704F0FF0A08EBE9
:1029C00004001FFA80F809EB05001FFA80F916E0F1
:1029D000444502DB5446A81985B24D4500DB14E09E
:1029E000002000903A78334629462046FFF746FEFD
:1029F000304606EBD07104EB61018CB27F1C387855
:102A00007E2802DC38782028E2DA00BFBDE8F887AB
:102A10000149088070470000FE07006C01490880EA
:102A2000704700000008006C0149088070470000F2
:102A30000008006C08B50121482001F055FD012176
:102A4000802001F051FD0121802001F04DFD012188
:102A5000802001F049FD0121802001F045FD012188
:102A6000802001F041FD0121802001F03DFD012188
:102A7000802001F039FD0121802001F035FD20206A
:102A8000ADF8000010208DF8030003208DF802003F
:102A900069463648FFF750F920213448FFF72BFAF2
:102AA0002020ADF8000069463148FFF745F92021A4
:102AB0002F48FFF720FA0120ADF8000069462D48A5
:102AC000FFF73AF901212B48FFF715FA0220ADF87C
:102AD000000069462748FFF72FF902212548FFF734
:102AE0000AFA0420ADF8000069462248FFF724F9ED
:102AF00004212048FFF7FFF90820ADF800006946DF
:102B00001C48FFF719F908211A48FFF7F4F91020BB
:102B1000ADF8000069461748FFF70EF91021154877
:102B2000FFF7E9F92020ADF8000069461148FFF7EA
:102B300003F920210F48FFF7DEF94020ADF800002F
:102B400069460C48FFF7F8F840210A48FFF7D3F927
:102B50008020ADF8000004208DF803006946054888
:102B6000FFF7EAF8002000F007F808BD000C01406C
:102B700000180140001C014010B5044684F0010219
:102B800020210348FFF7B9F90248047010BD000086
:102B9000000C01401500002070B50024002508E05D
:102BA0000620FFF7AFF90444052005F021F9681C61
:102BB000C5B20A2DF4DB0A20B4FBF0F4B4F57A6F49
:102BC00001D94FF47A642820B4FBF0F0C0F164001E
:102BD000C0B270BD00B587B00121802001F084FC37
:102BE0000121C80301F080FC0121C80301F08CFC25
:102BF00000214FF4004001F087FC4FF48070ADF8E5
:102C0000180000208DF81B0006A91848FFF794F85B
:102C10001748FDF7FDFF002001908DF808008DF8A2
:102C200009004FF4602003900020049001208DF8EB
:102C3000140001A90E48FEF73BF801210C48FDF7EE
:102C4000DBFF0B48FEF7B8F800BF0948FEF725F890
:102C50000028FAD10648FEF7BFF800BF0448FEF787
:102C600005F80028FAD107B000BD0000001C0140A3
:102C7000003C014010B50446FFF78EFF207010BDE8
:102C800010B50446207B012802D1206805F00EF91A
:102C9000002020606060A060207310BD0246002309
:102CA00001230DE002F07F000870D2092AB10878F4
:102CB00040F080000870491C01E0184670475B1C1A
:102CC000042BEFDD4FF0FF30F8E770B504460E46F9
:102CD0000025206898B901202073304605F010FBCC
:102CE00020602068E0B100206060A66003E0002062
:102CF000216848556D1CA068A842F8D810E0022051
:102D0000207303E00020216848556D1CA068A8428C
:102D1000F8D800206060A068B04201D20020206096
:102D200070BD00002DE9FF4F83B082468B4691466F
:102D3000159C0025002002900F2701904846FDF7C2
:102D400065FA0FFA80F8B9F1000F03D1012007B03E
:102D5000BDE8F08F08F10200384487B2109808B13E
:102D600045F00205129878B145F004051298FDF778
:102D70004DFAC0B202901398FDF748FA0146029846
:102D8000001D0844384487B2119820B1012804D0AE
:102D9000022808D104E000BF07E045F00C0504E07C
:102DA00045F0140501E00220D1E700BF149808B1F6
:102DB00045F02405BAF1000F02D0BBF1000F01D19C
:102DC0000320C4E745F0C0055046FDF71FFA06464C
:102DD0005846FDF71BFA3044001D384487B2394687
:102DE0002046FFF772FF206808B90420AFE7394694
:102DF0002068FDF7D8F910216268501C60602068D7
:102E00008154D4E90023D118781FFFF747FF00B29F
:102E100001900198002804DA2046FFF731FF0520D1
:102E200095E7616801980844606000216268501C61
:102E300060602068815404216268501C60602068D2
:102E400081544D216268501C60602068815451217A
:102E50006268501C60602068815454216268501C74
:102E60006060206881546268501C606020688154F2
:102E700004216268501C6060206881546168481CAD
:102E80006060206845540698010A6268501C6060C2
:102E9000206881540698C1B26268501C6060206846
:102EA0008154C8F307216268501C60602068815417
:102EB0006268501C6060206800F80280D4E900124B
:102EC000881842464946FDF7A8F9606840446060AA
:102ED00005F00400B8B30026139808B938A0139081
:102EE0001298FDF793F986B2310A6268501C60604F
:102EF000206881546268501C606020688654D4E960
:102F00000012881832461299FDF787F9606830443C
:102F100060601398FDF77AF986B2310A6268501C36
:102F20006060206881546268501C6060206886542C
:102F3000D4E90012881832461399FDF76EF96068DB
:102F40003044606000BF05F08000C8B15046FDF716
:102F50005DF986B2310A6268501C60602068815455
:102F60006268501C606020688654D4E9001288189A
:102F700032465146FDF751F960683044606000BF49
:102F800005F04000C8B15846FDF740F986B2310A55
:102F90006268501C6060206881546268501C6060E8
:102FA00020688654D4E90012881832465946FDF745
:102FB00034F960683044606000BF0020C7E600005C
:102FC000000000002DE9FF4F83B083461746994665
:102FD000139C002500260020029001908046BBF142
:102FE000000F03D1012007B0BDE8F08F00260AE0F2
:102FF0000498805D232803D00498805D2B2801D19C
:103000000220F0E7761C0498805D0028F0D148F09B
:103010003008119808B148F0010806EB0900851C3A
:10302000109820B1012804D002280AD105E000BF81
:1030300009E048F00208AD1C05E048F00408AD1CAA
:1030400001E00320CFE700BF8FB33878022821D1F9
:103050004FF0000A00BF50460AF1010A385C7D2893
:10306000F9D1AAF1030A0AF1070002900298A9EB2C
:10307000000AE81CA0EB0A012046FFF726FE2068A4
:1030800008B90420AFE7EA1CA2EB0A012068FDF7AB
:103090008AF819E0691D2046FFF717FE206808B975
:1030A0000420A0E7691D2068FDF77DF80CE0FFE72C
:1030B000691D2046FFF709FE206808B9042092E741
:1030C000691D2068FDF76FF86168481C6060206822
:1030D00000F80180D4E9000281182846FFF7DEFDE0
:1030E00001900198002804DA2046FFF7C9FD052069
:1030F00079E76168019808446060C6F30721626857
:10310000501C6060206881546268501C60602068B8
:103110008654D4E90012881832460499FDF77DF8E8
:10312000606830446060109860B14FEA1B216268AB
:10313000501C6060206881546268501C6060206888
:1031400000F802B0C7B1387802280BD1D4E90012D8
:1031500088183946029AFDF70DF86168029808440C
:10316000606009E0D4E9001288184A463946FDF744
:1031700001F8606848446060002034E72DE9F041C0
:1031800090B004460D4616469846169F23460CA25C
:10319000302104A8009504F033F801200021CDE986
:1031A000000133460A4604A9CDE902070A20FFF7C9
:1031B00009FF18B1012010B0BDE8F0810020FAE746
:1031C000247379732F25732F25732F7468696E67A5
:1031D0002F70726F70657274792F706F7374000046
:1031E0002DE9FF5F8046174699460E9C0026B246A1
:1031F000B3460025B8F1000F03D1012004B0BDE8AB
:10320000F09F0BE057F8250008B90220F6E757F8C1
:103210002500FCF7FBFF0644681CC5B24D45F1DBF9
:1032200009EB4900801C00EB060A0AF10501204663
:10323000FFF74BFD206808B90320DFE782216268B1
:10324000501C606020688154D4E900028118504607
:10325000FFF724FD0FFA80FBBBF1000F04DA2046D4
:10326000FFF70EFD0420C9E76068584460604FEA2C
:1032700018216268501C6060206881546268501C8C
:103280006060206800F80280002524E057F82500DF
:10329000FCF7BCFF0646C6F307216268501C60605D
:1032A000206881546268501C606020688654D4E9AC
:1032B0000023D01857F825103246FCF7AEFF60689F
:1032C000304460600198C1B26268501C6060206840
:1032D0008154681CC5B24D45D8DB00208EE7F0B59F
:1032E00004460D462646012300201060002114E00C
:1032F000775C07F07F07106807FB03001060705CC5
:1033000000F0800008B9481CF0BDDB01B3F5001FD8
:1033100002D36FF00100F7E7491CA942E8DB4FF048
:10332000FF30F1E701464878022801D001207047BC
:10333000887810B18878012801D1C878F7E7FF2094
:10334000F5E700002DE9FC5F81460D4614461E4658
:10335000DDE90C8B99F8000000F00F0A00200190C5
:103360000AF008000090CAF341008BF8000001AA9F
:10337000042109F10100FFF7B2FF4844471C0198FE
:10338000022802D30AF0010010B1FF20BDE8FC9F23
:103390007878397840EA012020802088801C0199C3
:1033A000884201D9FF20F1E754A1B81CFCF712FFB5
:1033B00008B10F20EAE79BF8000020B101283DD0BA
:1033C000022877D13BE0009808B1FF20DEE7218892
:1033D000481C04F095FF2860286808B9FF20D5E74D
:1033E0002288511C2868FCF7DEFE2288B91C286858
:1033F000FCF7C0FE0198801E2188401AA8F8000042
:10340000B8F80010481C04F07BFF3060306820B929
:10341000286804F04BFDFF20B8E7B8F80020511CE5
:103420003068FCF7C0FEB8F80020B4F800C0BB1C40
:103430000CEB03013068FCF79DFE4FE000BF2088D5
:10344000801C0199884201D9FF209FE72088C01C79
:10345000395C2088801C385C41EA00210E9801808C
:103460000E9808B9FF2091E72188481C04F048FF16
:103470002860286808B9FF2088E72288511C28683E
:10348000FCF791FE2288B91C2868FCF773FE0198AE
:10349000001F2188401AA8F80000B8F80010481C46
:1034A00004F02EFF3060306828B9286804F0FEFC74
:1034B000FF206BE710E0B8F80020511C3068FCF7E3
:1034C00072FEB8F80020B4F800C03B1D0CEB0301FD
:1034D0003068FCF74FFE01E0FF2057E700BF2B21CB
:1034E0002846FCF789FE20B923212846FCF784FEF4
:1034F00008B1FF204AE7002048E700002463726516
:103500007100000001464878022801D00120704770
:10351000887820B9C8780A2801D10020F7E701206F
:10352000F5E70000F8B50446FF2720780511012DC6
:1035300001DB0E2D01DD3846F8BD032D24D100201E
:1035400000906A460421601CFFF7C9FE2044461C17
:103550000098022803D3207800F0010008B1FF2072
:10356000EAE77078317840EA0120801C00998842AF
:1035700001D9FF20E0E706A1B01CFCF72BFE08B143
:103580000F2700E0032700E02F463846D4E700006D
:1035900024637265710000000146FF208A78A2B999
:1035A000CA78142A11D10A7932B1012A05D0022A27
:1035B00004D0802A06D103E000BF00BF002003E052
:1035C000012001E0022000BF00BF704702A11148A6
:1035D00003F0C8FD00BFFEE70D0A2A2A2A2A2A2A7C
:1035E0002A2A2A2A2A2A2A2A2A2A2A2A2A4D656D9A
:1035F0004D616E6167655F48616E646C65722A2A11
:103600002A2A2A2A2A2A2A2A2A2A2A2A2A2A2A2A1A
:103610002A0D0A00003801400EB50121084600F0CD
:1036200063FF02210420FEF767FB03210420FEF75D
:1036300063FB04210846FEF75FFB01210020FEF733
:103640005BFB07208DF8080000208DF809008DF83D
:103650000A0001208DF80B0002A800F04BF80820AA
:103660008DF8080001208DF8090000208DF80A006F
:1036700001208DF80B0002A800F03CF809208DF81D
:10368000080002208DF8090000208DF80A000120B2
:103690008DF80B0002A800F02DF80A208DF8080024
:1036A00003208DF8090000208DF80A0001208DF814
:1036B0000B0002A800F01EF80220009000208DF8F8
:1036C000040008208DF8050001208DF806006846EA
:1036D000FEF72EFA1C20009000208DF804000C202C
:1036E0008DF8050001208DF806006846FEF720FAE7
:1036F0000EBD704770B5002100230F22C47804B3BB
:10370000154C246804F4E064C4F5E064210AC1F1B6
:103710000403CA40447804FA03F184781440214336
:1037200009010E4C0678A155047804F01F05012408
:10373000AC4005786D11AD0005F1E025C5F80041FC
:1037400009E0047804F01F050124AC40044D06781C
:10375000761145F8264070BD0CED00E000E400E075
:1037600080E100E002490143024A11607047000015
:103770000000FA050CED00E0F0B58BB00546002620
:1037800000242846FCF742FDC7B20DB11C2F02DA17
:1037900001200BB0F0BD06E0A85D01A9885500200E
:1037A000A855701CC6B2BE42F6DB002001A98855A0
:1037B0000026002455E001A8805D2B2810D008DCED
:1037C000202814D023282ED0252825D026283FD1E4
:1037D00030E02F2812D03D2833D03F2838D114E0D4
:1037E000281923A1FCF7EAFCE01CC4B236E0281932
:1037F00020A1FCF7E3FCE01CC4B22FE028191EA1B5
:10380000FCF7DCFCE01CC4B228E028191BA1FCF783
:10381000D5FCE01CC4B221E0281919A1FCF7CEFCAC
:10382000E01CC4B21AE0281916A1FCF7C7FCE01C82
:10383000C4B213E0281914A1FCF7C0FCE01CC4B208
:103840000CE0281911A1FCF7B9FCE01CC4B205E09A
:1038500001A8805D2855601CC4B200BF00BF701C69
:10386000C6B2BE42A7DB0020285500BF91E700008A
:1038700025324200253230002532460025334600ED
:1038800025323500253233002532360025334400F9
:103890002DE9F04FC9B005460C4616461F460DF5FA
:1038A000A47898E8000F0020489055B14CB13F48EB
:1038B000864206D32FB1B9F1000F02D0BAF1780FCA
:1038C00003DA012049B0BDE8F08F402118A8FCF7C9
:1038D0006AFC3846FCF79AFC05903B4648AA402112
:1038E000009018A8FDF700FB482106A8FCF75BFC38
:1038F000BBF1000F09D02EA033462FA248218DE83E
:10390000310006A803F07CFC09E029A0334630A270
:1039100048218DE81101039506A803F071FC4021B0
:1039200028A8FCF740FC06A8FCF770FC059018A836
:10393000FCF76CFC049028A8009006AA18A8DDE902
:10394000041304F001FB00204890402138A8FCF744
:103950002AFC28A8FCF75AFC059028AB48AA40216D
:10396000009038A8FDF776FB38A8FFF705FFBBF1FC
:10397000000F0CD038A80EA12B461DA2CDE90046A1
:10398000CDE902105146484603F03AFC0CE038A855
:1039900007A12B46244ACDE901860094CDE9031006
:1039A0005146484603F02CFC00208BE79554415DBE
:1039B000736861310000000025640A25730A707283
:1039C0006F64756374732F25730A257300000000FC
:1039D00025640A25730A70726F64756374732F25EA
:1039E000732F646576696365732F25730A257300E9
:1039F00076657273696F6E3D2573267265733D70CF
:103A0000726F647563747325253246257326657459
:103A10003D2564266D6574686F643D257326736962
:103A2000676E3D257300000024FB000870B588B068
:103A300005460C460020049005900690079023460A
:103A40002A4610A1174803F08DFB2046FCF7DEFB49
:103A5000064604A80121002200923346CDE9012147
:103A60000390224629460A20FFF7ACFA38B9059A96
:103A700091B20498FDF7CCFE04A8FFF701F908B055
:103A800070BD00005075626C69736820546F706976
:103A9000633A2025732C204D73673A2025730D0A55
:103AA000000000000038014000B595B000201190E2
:103AB00012901390149003A8029010A010A313A2C8
:103AC0003821009003A803F09BFB03AA17A11D480F
:103AD00003F048FB11A8012302AA00210090142042
:103AE000FFF77EFB38B9129A91B21198FDF790FE5C
:103AF00011A8FFF7C5F815B000BD00006431000043
:103B0000354B6771544D3032484B00002473797344
:103B10002F25732F25732F7468696E672F70726F4E
:103B200070657274792F7365740000005375627349
:103B3000637269626520546F7069633A2025730D62
:103B40000A0000000038014030B5B3B000202F90CB
:103B50003090319032900125A02107AA37A3CDE9FA
:103B60000032CDE9021036A3414A42A144A0FFF73A
:103B70008FFE07A83FA331A244A100904F4803F055
:103B8000F1FA2FA8002102910391CDE90410084613
:103B900001210B0229A2CDE9001007A935A0FFF7EA
:103BA000C1F8002842D1309A91B22F98FDF730FE2B
:103BB000FA20FDF735FD0446002C33D02046FFF7F0
:103BC000B1FC02282ED12046FFF7ACFB062823D2F9
:103BD000DFE800F003090E13181D39A1374803F080
:103BE000C1FA00251DE03BA1344803F0BBFA18E000
:103BF0003FA1324803F0B6FA13E046A12F4803F084
:103C0000B1FA0EE04BA12D4803F0ACFA09E052A145
:103C10002A4803F0A7FA04E05AA1284803F0A2FAC0
:103C200000BF00BF2FA8FFF72BF803E05CA12348DB
:103C300003F098FA284633B030BD0000643100002C
:103C4000534564785A304D34646D704E4D30513167
:103C5000646E6452546B565963314A5A61457332EB
:103C6000616B3032536B64585548673D000000006B
:103C700000CF9D74354B6771544D3032484B000076
:103C8000323031382D31302D333100004F6E654EDA
:103C900045545F4465764C696E6B0D0A4E414D4547
:103CA0003A2025732C0950524F49443A2025732C51
:103CB000094B45593A25730D0A00000000380140B0
:103CC000546970733A09C1ACBDD3B3C9B9A60D0A22
:103CD000000000005741524E3A09C1ACBDD3CAA7FB
:103CE000B0DCA3BAD0ADD2E9B4EDCEF30D0A00003A
:103CF0005741524E3A09C1ACBDD3CAA7B0DCA3BAF2
:103D0000B7C7B7A8B5C4636C69656E7469640D0AFA
:103D1000000000005741524E3A09C1ACBDD3CAA7BA
:103D2000B0DCA3BAB7FECEF1C6F7CAA7B0DC0D0A65
:103D3000000000005741524E3A09C1ACBDD3CAA79A
:103D4000B0DCA3BAD3C3BBA7C3FBBBF2C3DCC2EBDB
:103D5000B4EDCEF30D0A00005741524E3A09C1AC02
:103D6000BDD3CAA7B0DCA3BAB7C7B7A8C1B4BDD387
:103D700028B1C8C8E7746F6B656EB7C7B7A8290DBF
:103D80000A0000004552523A09C1ACBDD3CAA7B0DF
:103D9000DCA3BACEB4D6AAB4EDCEF30D0A0000006F
:103DA0005741524E3A094D5154545F5061636B650F
:103DB00074436F6E6E656374204661696C65640D53
:103DC0000A00000010B58CB0044630216846FCF7AC
:103DD000EAF956A12046FCF734FA30216846FCF790
:103DE000E2F95848027858A1684603F021FA69467A
:103DF0002046FCF7E3F930216846FCF7D4F958482F
:103E0000027858A1684603F013FA69462046FCF789
:103E1000D5F930216846FCF7C6F95848027858A110
:103E2000684603F005FA69462046FCF7C7F93021D9
:103E30006846FCF7B8F95848027858A1684603F07C
:103E4000F7F969462046FCF7B9F930216846FCF7D6
:103E5000AAF9002257A1684603F0EAF9694620460C
:103E6000FCF7ACF930216846FCF79DF9002258A117
:103E7000684603F0DDF969462046FCF79FF93021DA
:103E80006846FCF790F95A48007808B159A000E05C
:103E90005AA002465BA1684603F0CAF9694620466B
:103EA000FCF78CF930216846FCF77DF95A48007818
:103EB00008B150A000E051A0024658A1684603F0A6
:103EC000B7F969462046FCF779F930216846FCF7D6
:103ED0006AF95848007808B146A000E047A00246B9
:103EE00055A1684603F0A4F969462046FCF766F937
:103EF00030216846FCF757F95548007808B13DA0D5
:103F000000E03EA0024653A1684603F091F96946DD
:103F10002046FCF753F955A12046FCF74FF92046FF
:103F2000FCF774F9C0B20CB010BD00007B226964CC
:103F3000223A22313233222C22706172616D732257
:103F40003A7B0000930000202268756D69223A7B5D
:103F50002276616C7565223A25647D2C0000000094
:103F6000920000202274656D70223A7B2276616C8B
:103F70007565223A25647D2C00000000A900002010
:103F8000226C69676874223A7B2276616C756522BF
:103F90003A25647D2C000000B10000202268777370
:103FA000656E64223A7B2276616C7565223A2564DF
:103FB0007D2C0000225247425F666C6167223A7B8B
:103FC0002276616C7565223A25647D2C0000000024
:103FD000227761726E696E675F74656D70223A7BDD
:103FE0002276616C7565223A25647D2C0000000004
:103FF00015000020747275650000000066616C7326
:1040000065000000226C6564223A7B2276616C7543
:1040100065223A25737D2C0014000020226265651C
:1040200070223A7B2276616C7565223A25737D2C6D
:1040300000000000B0000020226469616E6A6922FD
:104040003A7B2276616C7565223A25737D2C0000DF
:10405000AC000020227761726E696E67223A7B2283
:1040600076616C7565223A25737D00007D7D0000C8
:104070002DE9F14FACB000202B902A902990289088
:10408000279026902590249023902C98FFF74AFAA9
:1040900026902698032804D004287BD009287AD1BA
:1040A000D0E07D4827A928AA2BABCDE900210290BA
:1040B00029AA2AA92C98FFF745F9259025980028C8
:1040C0006AD18346BDF8A0002B99CDE90010BDF858
:1040D000A43072A180482A9A03F044F82B9803F088
:1040E00027FE22907DA1229803F002FE21907DA15F
:1040F000219803F0FDFD054645B1E868012802D18D
:10410000FEF73AFD02E00020FEF736FD76A1219889
:1041100003F0EEFD8246BAF1000F0DD0DAF80C0084
:10412000012804D1C821724801F091FC04E040F25A
:10413000F3116F4801F08BFC6EA1219803F0D8FDBC
:10414000064646B1F068012802D1FDF743F802E0C7
:104150000020FDF73FF869A1219803F0C9FD8046D2
:10416000B8F1000F09D0D8F80C00012802D1654938
:10417000087002E000206349087063A1219803F0F1
:10418000B7FD8146B9F1000F03D099F814006249D8
:10419000087002E04DE063E04AE060A1219803F07E
:1041A000A7FD0746D7B17C6914225F491CA8FBF71D
:1041B000E1FF052094FBF0F100FB11401CA951F830
:1041C0002000E11704EB11710911A4EB0111CDE9F5
:1041D0001A04C8B21A9900F039FB00BF229803F004
:1041E0005BFD52A12A98FBF7F5FF8346BBF1000F58
:1041F0001DD02F215846FBF7FFFF83460BF1010B23
:104200002422594603A8FBF7B5FF00208DF83000A3
:1042100003A849A149A34CA2CDE9001050210DA843
:1042200002F0EEFF4FA10DA8FFF700FC00BF00BF9A
:1042300000BF2C98FFF766F918B94BA1264802F089
:1042400091FF11E02C98FFF7A7F920B94EA1224861
:1042500002F088FF03E053A11F4802F083FF03E050
:104260004FF0FF30259000BF00BFFDF7CBF9259838
:10427000401C10B92DB0BDE8F08F26980F2802D051
:104280002698032805D12A9803F010FE2B9803F0F6
:104290000DFE00BFEEE70000C0000020746F7069E3
:1042A000633A2025732C20746F7069635F6C656EB0
:1042B0003A2025642C207061796C6F61643A202566
:1042C000732C207061796C6F61645F6C656E3A204D
:1042D00025640D0A00000000003801407061726121
:1042E0006D7300006C6564006469616E6A6900004A
:1042F0000004004062656570000000007761726E26
:10430000696E6700AC0000207761726E696E675F4E
:1043100074656D7000000000AD0000205247425FE0
:10432000666C61670000000038F9000872657175FD
:104330006573742F0000000064310000354B677115
:10434000544D3032484B0000247379732F25732F5E
:1043500025732F636D642F726573706F6E73652F95
:10436000257300006F6B0000546970733A094D515A
:104370005454205075626C6973682053656E6420D4
:104380004F4B0D0A00000000546970733A094D51FB
:10439000545420537562736372696265204F4B0DEC
:1043A0000A000000546970733A094D515454205367
:1043B0007562736372696265204572720D0A00004E
:1043C00030B5C5B000204190429043904490002405
:1043D00000251CA1234802F0C5FE4FF4807101A8FE
:1043E000FBF7E1FE01A8FFF7EDFC0446002C26D008
:1043F00041A8002322461CA100901CA0FEF7BEFE8F
:10440000C8B908E001A8415D429A501C4290419809
:104410008154681C05B2A542F4DB429A91B24198DE
:10442000FDF7F6F914A10F48429A02F09BFE41A84D
:10443000FEF726FC03E014A10A4802F093FE45B003
:1044400030BD0000546970733A094F6E654E657453
:104450005F53656E64446174612D4D5154540D0A6F
:10446000000000000038014064310000354B6771E6
:10447000544D3032484B000053656E642025642053
:1044800042797465730D0A005741524E3A0945440A
:10449000505F4E6577427566666572204661696C4D
:1044A00065640D0A0000000029B1064A5269024302
:1044B000044B5A6104E0034A52698243014B5A613A
:1044C000704700000010024029B1064AD269024339
:1044D000044BDA6104E0034AD2698243014BDA619A
:1044E000704700000010024029B1064A9269024359
:1044F000044B9A6104E0034A92698243014B9A613A
:10450000704700000010024029B1064AD2680243F9
:10451000044BDA6004E0034AD2688243014BDA605C
:10452000704700000010024030B500210022002436
:1045300000232D4D6D6805F00C0121B1042905D033
:10454000082923D105E0294D056022E0274D0560AB
:104550001FE0254D6D6805F47012234D6D6805F45C
:104560008034022505EB92421CB9214D554305606C
:104570000BE01D4D6D6805F400351DB11C4D554314
:10458000056002E0194D5543056002E0174D0560D6
:1045900000BF00BF144D6D6805F0F0010909154D0D
:1045A0006B5C0568DD4045600F4D6D6805F4E061AA
:1045B000090A104D6B5C4568DD4085600A4D6D68E9
:1045C00005F46051C90A0B4D6B5C4568DD40C56060
:1045D000054D6D6805F44041890B074D6B5CC5685E
:1045E000B5FBF3F5056130BD0010024000127A0002
:1045F00000093D0000000020100000202DE9F047D8
:1046000004460D46914698460026002700F052F8D1
:10461000B9F1000F16D0C8F3074004EB8401244A17
:1046200011444855C8F3072104EB8402204819308F
:104630001044415504EB84021D483230104400F808
:10464000058012E0002004EB8401194A114448550A
:10465000002104EB8402164819301044415504EB44
:104660008402134832301044415500261BE00027D5
:1046700015E007EB870C0E4B323363449A5D07EB72
:104680008703DFF82CC06344995D07EB870C084B68
:1046900019336344985D00F0B7F8781CC7B2052F52
:1046A000E7DB701CC6B2052EE1DBBDE8F087000039
:1046B000E400002010B5002406E000221146104658
:1046C00000F0A2F8601CC4B2192CF6DB00F020F850
:1046D0000A2003F08DFB10BD08B501214020FFF733
:1046E00003FF2020ADF8000010208DF80300032008
:1046F0008DF8020069460548FDF71EFB202103489E
:10470000FDF7F9FBFFF7D6FF08BD000000180140D8
:1047100010B520210348FDF7ECFB502003F08EFB81
:1047200010BD00000018014010B520211948FDF708
:10473000E2FB00BF00BF00BF00BF00BF00BF00BF63
:1047400000BF00BF00BF00BF00BF20211148FDF720
:10475000D0FB00BF00BF00BF00BF00BF00BF00BF55
:1047600000BF00BF00BF00BF00BF00BF00BF00BF51
:1047700000BF00BF00BF00BF00BF00BF00BF00BF41
:1047800000BF00BF00BF00BF00BF00BF00BF00BF31
:1047900000BF10BD0018014010B520211948FDF7D9
:1047A000AAFB00BF00BF00BF00BF00BF00BF00BF2B
:1047B00000BF00BF00BF00BF00BF00BF00BF00BF01
:1047C00000BF00BF00BF00BF00BF00BF00BF00BFF1
:1047D00000BF00BF00BF00BF00BF00BF00BF00BFE1
:1047E00000BF20210748FDF784FB00BF00BF00BFCA
:1047F00000BF00BF00BF00BF00BF00BF00BF00BFC1
:1048000000BF10BD0018014070B506460C461546A5
:10481000304600F007F8204600F004F8284600F083
:1048200001F870BD70B5044600250BE004F080006F
:1048300010B1FFF7B1FF01E0FFF776FF6006040E4D
:10484000681CC5B2082DF1DB70BD00002DE9F047F2
:10485000074688464FF00009002400250026A2469E
:1048600000BF30E007EB87001949084410F804A0A6
:104870004FF0000922E00AF0800030B143460122E7
:1048800031462846FFF7BAFE05E04346002231468E
:104890002846FFF7B3FE4FEA4A604FEA106A701CE1
:1048A000C6B2052E06D10026681CC5B2052D01D161
:1048B000BDE8F08709F1010000F0FF09B9F1050F2B
:1048C000D9DB601CC4B2052CCCDB00BFF0E70000D4
:1048D000D2E80008704700001CB5002491499248B6
:1048E000FCF74DFD904800780A2190FBF1F0303044
:1048F0008E4908708C4800780A2190FBF1F201FB88
:10490000120030308949487000208870084618210C
:10491000CDE9001086484388028850215520FEF7D3
:1049200044F88448006820B983A18448FBF789FCD7
:1049300003E083A18148FBF784FC7E480C300068CB
:1049400020B97DA17F48FBF77CFC03E07CA17D487A
:10495000FBF777FCFDF7C4F97B490870084600783F
:1049600040B97AA17548FBF76CFC79A17C4802F04C
:10497000F9FB03E07BA17148FBF763FC6948007811
:104980000A2190FBF1F030307749087065480078D3
:104990000A2190FBF1F201FB12003030724948709D
:1049A00000208870714800780A2190FBF1F03030C7
:1049B0006F4908706D4800780A2190FBF1F201FB05
:1049C000120030306A49487000208870664818210B
:1049D000CDE9001056484388028878215520FDF71C
:1049E000E4FFFEF7D9F80446224662A1624802F0CD
:1049F0001FFC61481821CDE900104D48438802880A
:104A0000A0215520FDF7D1FF5C48027859A15C48F0
:104A100002F00EFC5A481821CDE9001044484388A2
:104A20000288C8215520FDF7C0FF56481821CDE95E
:104A300000103F4843880288F0215520FDF7B5FF5C
:104A40003E481821CDE900103948438802884FF4C8
:104A50008C715520FDF7A9FF45481821CDE90010BC
:104A60003348438802884FF4A0715520FDF79DFF1D
:104A700045480078012854D1002043490870434834
:104A8000016843A002F0ACFB4048006845498842F9
:104A900009D101203949087008204349087028A12C
:104AA0003848FBF7CEFB394800684049884209D1B5
:104AB00002203249087000203B4908701EA131488D
:104AC000FBF7BFFB314800683949884205D1032014
:104AD0002A4908700020FEF74FF82C480068354935
:104AE000884205D10420254908700120FEF744F8CA
:104AF000264800683049884205D105201F490870C2
:104B00000020FCF767FB214800682C49884205D14A
:104B100006201A4908700120FCF75CFB00201B49A5
:104B200008601CBD9300002092000020B700002008
:104B300034000020948121426F6E0000A10000200B
:104B40006F660000A5000020B200002079657300A8
:104B5000BCECB2E2B5BDB4C5B3A10D0A00000000C3
:104B6000003801406E6F6F00BA000020B1000020D5
:104B7000BD00002025750000950000209400002055
:104B8000990000209D000020400000203C000020F3
:104B9000BAECCDE2BDD3CAD5C2EB2025302E3858B1
:104BA0000D0A0000CF30FF00AF000020E718FF0023
:104BB000857AFF00EF10FF00C738FF00A55AFF00FD
:104BC00008B58020ADF8000048208DF80300694644
:104BD0000148FDF7B1F808BD000C014008B5802080
:104BE000ADF8000003208DF8020010208DF80300BE
:104BF00069460248FDF7A0F808BD0000000C01401E
:104C0000704710B500F002F810BD00000CB5002090
:104C1000019000903348006840F4803031490860CA
:104C200000BF3048006800F4003000900198401C3C
:104C30000190009818B90198B0F5A06FF1D12948FA
:104C4000006800F4003010B10120009001E0002065
:104C500000900098012843D12348006840F01000DC
:104C6000214908600846006820F0030008600846F3
:104C7000006840F0020008601A484068194948601E
:104C80000846406848600846406840F480604860D4
:104C90000846406820F47C1048600846406840F4AC
:104CA000E81048600846006840F08070086000BF67
:104CB0000C48006800F000700028F9D009484068EE
:104CC00020F00300074948600846406840F00200B1
:104CD000486000BF0348406800F00C000828F9D184
:104CE0000CBD00000010024000200240042808D142
:104CF0004FF0E021096941F004014FF0E022116119
:104D000007E04FF0E021096921F004014FF0E022B3
:104D1000116170477047000010B504466FF0040041
:104D2000FFF7E4FFE11704EB5171C1F3C701074A34
:104D300011701046007800EB4001C1EBC0104FF637
:104D4000FF7101EAC0000249088010BD2C0000205C
:104D50002E00002010B51348006840F001001149F2
:104D6000086008464068104908400E4948600846F7
:104D700000680E4908400B4908600846006820F4A6
:104D8000802008600846406820F4FE0048604FF428
:104D90001F008860FFF735FF4FF00060044908608E
:104DA00010BD0000001002400000FFF8FFFFF6FEFB
:104DB00008ED00E000B59DB001210802FFF774FB8B
:104DC00001200790002008900F20099000200A90F1
:104DD0000B900C900D9015200090019005200290F2
:104DE0000020039004900590069006200E9000206D
:104DF0000F9010901020119000201290149013909A
:104E0000159016904FF480501790002018904FF492
:104E10008040199000201A9007A81B90CDF870D000
:104E20000EA8FCF7E9FE01210620FCF7CBFE1DB021
:104E300000BD000008B501214FF4B470FFF754FB2A
:104E40004CF23370ADF8000018208DF803000320F9
:104E50008DF8020069461848FCF76EFF4FF6807027
:104E6000ADF8000018208DF8030003208DF8020033
:104E700069461248FCF760FF41F20100ADF80000FE
:104E800018208DF8030003208DF8020069460C48B5
:104E9000FCF752FF0120ADF8000010208DF8030050
:104EA00003208DF8020069460648FCF745FF012003
:104EB0000549086008BD00000014014000180140C9
:104EC00000200140000C01408081214210B5FFF715
:104ED000B1FFFFF76FFF322002F08AFFD320FDF70A
:104EE00097FDA3480088A3498880A148008888804E
:104EF0009F4800888880084680884FF6FF7101EA45
:104F000000209C4988800846808899490988084380
:104F1000984988800846818897A002F061F9FF20AF
:104F2000FDF776FDFF20FDF773FD052002F060FF21
:104F3000FF20FDF76DFDFF20FDF76AFDFF20FDF767
:104F400067FDFF20FDF764FD0A2002F051FFB0204D
:104F5000FDF75EFD0020FDF761FDB320FDF758FD74
:104F60000220FDF75BFD0020FDF758FD0020FDF756
:104F700055FD0020FDF752FDC020FDF749FD13202F
:104F8000FDF74CFD3B20FDF749FD0020FDF746FDF8
:104F90000020FDF743FD0020FDF740FD0120FDF757
:104FA0003DFD0020FDF73AFD4320FDF737FDC12010
:104FB000FDF72EFD0820FDF731FD1B20FDF72EFD2E
:104FC0000820FDF72BFD0820FDF728FDC420FDF784
:104FD0001FFD1120FDF722FD0120FDF71FFD7320AD
:104FE000FDF71CFD0120FDF719FDC620FDF710FDA2
:104FF0000020FDF713FDC820FDF70AFD0F20FDF787
:105000000DFD0520FDF70AFD1420FDF707FD5C20CE
:10501000FDF704FD0320FDF701FD0720FDF7FEFC71
:105020000720FDF7FBFC1020FDF7F8FC0020FDF742
:10503000F5FC2320FDF7F2FC1020FDF7EFFC072024
:10504000FDF7ECFC0720FDF7E9FC5320FDF7E6FC3B
:105050000C20FDF7E3FC1420FDF7E0FC0520FDF734
:10506000DDFC0F20FDF7DAFC2320FDF7D7FC002044
:10507000FDF7D4FC3520FDF7CBFC0020FDF7CEFC7E
:105080004420FDF7C5FC0020FDF7C8FC0120FDF71A
:10509000C5FCD020FDF7BCFC0720FDF7BFFC0720B6
:1050A000FDF7BCFC1D20FDF7B9FC0320FDF7B6FCA5
:1050B000D120FDF7ADFC0320FDF7B0FC5B20FDF730
:1050C000ADFC1020FDF7AAFCD220FDF7A1FC0320C7
:1050D000FDF7A4FC2420FDF7A1FC0420FDF79EFCB5
:1050E0002A20FDF795FC0020FDF798FC0020FDF735
:1050F00095FC0120FDF792FC3F20FDF78FFC2B2053
:10510000FDF786FC0020FDF789FC0020FDF786FCFA
:105110000120FDF783FCDF20FDF780FC3620FDF742
:1051200077FC0020FDF77AFCC020FDF771FC13200E
:10513000FDF774FC3A20FDF76BFC5520FDF76EFC83
:105140001120FDF765FC962002F052FE2920FDF7A4
:105150005FFC1E2002F04CFE2C20FDF759FC0020C5
:10516000FDF748F94FF6FF70FDF720F910BD00007C
:105170000008006C34000020204C43442049443A8D
:1051800025780D0A00000000F0B50C4615460022F7
:105190000021068C4FF6FE773E400684028B018C80
:1051A0004FF60C7632407E1C06EA03162E4332433D
:1051B000104EB0420ED0104EB0420BD0B0F1804F26
:1051C00008D00E4EB04205D00D4EB04202D00D4E6A
:1051D000B04206D14FF6FD76314044F0010631432E
:1051E00005E04FF6F576314044F001063143028385
:1051F0000184F0BD002C0140003401400004004057
:1052000000080040000C0040F0B50C461546002296
:1052100000210026078C4FF6EF7C07EA0C07078475
:10522000028B018C4FF6FF7707EA041640F6FF4722
:105230003A404FF6FF7707EA03373A434FF6FF77D6
:1052400007EA05273A43114FB8420ED0104FB84233
:105250000BD0B0F1804F08D00E4FB84205D00E4FA2
:10526000B84202D00D4FB84206D14FF6DF77394031
:1052700046F01007394305E04FF65F77394044F0B8
:105280001007394302830184F0BD0000002C014067
:10529000003401400004004000080040000C0040C1
:1052A000F0B50C461546002200210026078C4FF66B
:1052B000FF6C07EA0C070784828B018C4FF6FF779F
:1052C00007EA04264FF60C773A404FF6FF7707EAD5
:1052D00003172F433A43114FB8420ED0104FB84234
:1052E0000BD0B0F1804F08D00E4FB84205D00E4F12
:1052F000B84202D00D4FB84206D14FF6FF573940A1
:1053000046F48077394305E04FF2FF57394044F4C3
:105310008077394382830184F0BD0000002C014076
:10532000003401400004004000080040000C004030
:10533000F0B50C461546002200210026078C4EF6DB
:10534000FF7C07EA0C070784828B018C4FF6FF77FE
:1053500007EA043640F6FF473A404FF6FF7707EA80
:1053600005273A434FF6FF7707EA03373A43114FD1
:10537000B8420ED0104FB8420BD0B0F1804F08D0D9
:105380000E4FB84205D00E4FB84202D00D4FB84272
:1053900006D14DF6FF77394046F48057394305E092
:1053A00047F6FF57394044F48057394382830184DC
:1053B000F0BD0000002C014000340140000400401A
:1053C00000080040000C004030B589B005460C468E
:1053D00001211020FFF788F801210220FFF774F85F
:1053E00001210846FFF780F88020ADF80400032073
:1053F0008DF8060018208DF8070001A91748FCF762
:105400009BFC01211648FCF723FDADF81C50ADF8BC
:1054100018400020ADF81E00ADF81A0006A911488A
:1054200000F046FB6020ADF808000220ADF8100047
:105430000120ADF80A0002A90A4800F0A9FA0821E3
:10544000084800F0F7FA0121064800F003FA0121AC
:10545000044800F011FA09B030BD0000001001400E
:10546000000C1A000004004010B50121B44800F0FF
:105470001EFA012877D1B3480078B34909788842E9
:1054800006DBB2480078012802D1FBF7A3FE0CE04E
:10549000AC480078AC490978884206DAAB48007815
:1054A000012802D10020FBF795FEA9480078D0B969
:1054B000A7480078401CA64908700020A54908604C
:1054C0000120A549C1F88401A24908310860091DDD
:1054D0000860091D0860091D0860091D08609E49D3
:1054E000C1F89C010CE19A48007801281BD198482A
:1054F0000078401C964908700120964908600020F9
:105500009549C1F884010120924908310860091DBC
:105510000860091D0860091D0860091D08608E49A2
:10552000C1F89C01ECE08A48007802281CD1884828
:105530000078401C86490870012086490860864929
:10554000C1F8840100208349083108600120091D49
:105550000860091D0860091D0860091D08607E4972
:10556000C1F89C01CCE0E5E07948007803281BD124
:1055700077480078401C764908700120754908601A
:105580007549C1F884017349083108600020091D7C
:1055900008600120091D0860091D0860091D0860D8
:1055A0006D49C1F89C01ABE06948007804281BD123
:1055B00067480078401C664908700120654908600A
:1055C0006549C1F88401634908310860091D086014
:1055D0000020091D08600120091D0860091D0860E0
:1055E0005D49C1F89C018BE05948007805281BD122
:1055F00057480078401C56490870012055490860FA
:105600005549C1F88401534908310860091D0860F3
:10561000091D08600020091D08600120091D08609F
:105620004D49C1F89C016BE04948007806281BD120
:1056300047480078401C46490870012045490860E9
:105640004549C1F88401434908310860091D0860D3
:10565000091D0860091D08600020091D086001205F
:105660003D49C1F89C014BE039480078072818D122
:105670000020374908700120364908603649C1F8D2
:105680008401344908310860091D0860091D08605B
:10569000091D0860091D086000202F49C1F89C0100
:1056A0002EE02B480078082814D1012029490860F1
:1056B0002949C1F88401274908310860091D08609B
:1056C000091D0860091D0860091D08602249C1F80C
:1056D0009C0115E000201E4908701E4908601E4903
:1056E000C1F884011B4908310860091D0860091DC3
:1056F0000860091D0860091D08601749C1F89C0170
:105700001648007816490978884206DB0F48007869
:10571000012802D1134908600CE0104800781049B4
:105720000978884206DA09480078012802D1002069
:105730000C4908600121024800F09BF810BD0000F0
:105740000008004092000020AD000020AC000020C6
:10575000AF0000208081234200802342A900002066
:10576000AE000020948121427FB505460C46012100
:105770000420FEF7A9FEADF80850ADF80440002063
:10578000ADF80A00ADF8060001A9104800F090F944
:10579000012211460D4800F0F1F801210B4800F0FC
:1057A00068F81E208DF8000002208DF8010003200B
:1057B0008DF8020001208DF803006846FDF79AFF7E
:1057C0000121024800F058F87FBD000000080040A9
:1057D00030B587B005460C4601210420FEF784FE53
:1057E00001210820FEF770FE0220ADF80000042021
:1057F0008DF8030003208DF8020069461348FCF77A
:105800009BFAADF81450ADF810400020ADF816002A
:10581000ADF8120004A90E4800F04AF90420ADF8D2
:1058200004000020ADF80C00ADF80600ADF80A0049
:105830000120ADF8080001A9054800F049F8012150
:10584000034800F019F807B030BD0000000801401F
:10585000000C004021B1028842F08002028004E086
:1058600002884FF67F731A4002807047CA43028253
:105870007047CA430282704721B1028842F0010298
:10588000028004E002884FF6FE731A4002807047DF
:105890000146088F70470146888C704702460020F9
:1058A000138A0B400BB1012000E00020704730B597
:1058B0000246002000230024158A05EA0103958989
:1058C00005EA010413B10CB1012000E0002030BD55
:1058D00070B505460C46244885420ED023488542C3
:1058E0000BD0B5F1804F08D02148854205D0214822
:1058F000854202D02048854200D100E000BF2088C8
:1059000050B92389A28861882846FFF73DFCE188C9
:10591000284600F0A0F825E0208804280AD1238931
:10592000A28861882846FFF76FFCE188284600F0CE
:105930009BF817E0208808280AD12389A28861886B
:105940002846FFF7ADFCE188284600F09AF809E008
:105950002389A28861882846FFF7EAFCE188284667
:1059600000F098F870BD0000002C014000340140A8
:105970000004004000080040000C00401AB1838978
:105980000B43838102E083898B438381704700004E
:1059900070B5002400220023058C4FF6EF763540C9
:1059A0000584028C8388048B48F6FF752C404FF6E3
:1059B000FF452C400D884FF6FF7606EA05252C435F
:1059C0004FF6DF752A400D8906EA05152A434D88F2
:1059D00006EA05152A43154DA84202D0144DA842E7
:1059E0001DD14FF67F752A404D894FF6FF7606EAA6
:1059F00005152A434FF6BF752A408D8806EA05151E
:105A00002A434FF6FF352B404FF2FF752B408D890F
:105A100006EA85052B43CD8906EA85052B4383805D
:105A20000483CD880587028470BD0000002C0140EE
:105A3000003401400A460021018B4FF2FF731940E8
:105A40004FF6FF7303EA022319430183704701876E
:105A5000704781847047028B4FF6F3731A400283BC
:105A6000028B0A4302837047028B4FF2FF331A40C6
:105A70000283028B4FF6FF7303EA01231A4302836A
:105A80007047828B4FF6F3731A408283828B0A43EE
:105A900082837047828B4FF2FF331A408283828B5E
:105AA0004FF6FF7303EA01231A4382837047000015
:105AB000002202881D4B98420ED01D4B98420BD0FD
:105AC000B0F1804F08D01B4B984205D01A4B98423A
:105AD00002D01A4B984204D14FF68F731A404B886C
